:100000000C9434000C9451000C9451000C94510049
:100010000C9451000C9451000C9451000C9451001C
:100020000C9451000C9451000C9451000C9451000C
:100030000C9451000C9451000C9451000C945100FC
:100040000C9451000C9451000C94FB010C941B0275
:100050000C9451000C9451000C9451000C945100DC
:100060000C9451000C94510011241FBECFEFD8E026
:10007000DEBFCDBF11E0A0E0B1E0EEE0FEE002C0E7
:1000800005900D92A036B107D9F722E0A0E6B1E0C5
:1000900001C01D92AA38B207E1F70E94BC010C947E
:1000A00005070C94000083E390E00E94E7010E94A2
:1000B000C1010895EF92FF920F931F93CF93DF93A7
:1000C0008C01EB01FC0101900020E9F73197CF0191
:1000D000801B910BFB0101900020E9F73197E61B93
:1000E000F70B8E0F9F1F02960E94C2027C01B8017F
:1000F0000E94FF03F70101900020E9F731978AE39E
:1001000090E091838083BE01C7010E94F403C70180
:100110000E946B02C7010E945703DF91CF911F918C
:100120000F91FF90EF900895E0918402F091850285
:100130008581813351F481E08093640166E071E050
:1001400088E091E00E945A000895803341F41092B3
:1001500064016DE071E088E091E00E945A0008952A
:10016000A0918202B0918302E0E1F1E080E721E01A
:1001700030E09D918913232F81918111FACF2223A1
:1001800051F081E08093630166E071E088E191E0E5
:100190000E945A000895109263016DE071E088E1B9
:1001A00091E00E945A000895E0918402F091850246
:1001B00081E09581913309F080E0882381F080917E
:1001C0006301882361F00E94DC0181E08093620179
:1001D00066E071E08DE191E00E945A0008950E946E
:1001E000E001109262016DE071E08DE191E00E940A
:1001F0005A000895EF92FF920F931F93CF93DF93CE
:1002000000D01F92CDB7DEB780916201882369F1DB
:1002100080916301882349F108EE13E0E12CF12C71
:100220000E94E201E80EF91E01501109C9F7C70149
:1002300068EE73E00E949A027F936F9382E291E0EE
:100240009F938F938E010F5F1F4F1F930F930E94F9
:100250002D04B80185E291E00E945A000F900F90A2
:100260000F900F900F900F9006C06DE071E08DE140
:1002700091E00E945A000F900F900F90DF91CF9164
:100280001F910F91FF90EF900895009781F0FC016E
:10029000A62FB72F20E030E081E050E001C0852F8D
:1002A00041912F5F3F4F9D91491303C007C080E0EC
:1002B0000895243031059CF380E008952430310501
:1002C0007CF308958AE291E00E946B028AE00E942A
:1002D0007A0290938502809384028FEC97E00197D5
:1002E000F1F700C0000061E371E080918402909119
:1002F00085020E94EF03909383028093820263E35E
:1003000071E080E090E00E94EF039093830280937D
:100310008202C0918402D091850265E371E0CE0132
:100320000E944501882319F00E949400CFCF6AE310
:1003300071E0CE010E944501882319F00E94B000AF
:10034000C5CF6FE371E0CE010E944501882319F00B
:100350000E94D400BBCF64E471E0CE010E9445014D
:10036000882319F00E94FA00B1CF69E471E08AE5B0
:1003700091E00E945A00AACF0E9453000E9462019D
:10038000FFCFEAE7F0E0808187608083ACE7B0E0F0
:100390008C9180648C938C918C93ABE7B0E08C91C2
:1003A000887F8C9380818062808380818068808355
:1003B0008081806480830895449A0E94C1010895D9
:1003C00044980895809178009091790008959093D1
:1003D000C5008093C40088E98093C10086E08093C3
:1003E000C200109200021092010210927E0110923F
:1003F0007F01789408951F920F920FB60F921124E7
:100400008F939F93EF93FF938091C600E091010239
:10041000EF5FEF77E093010290910002F0E0EE5F72
:10042000FD4F8083FF91EF919F918F910F900FBEB1
:100430000F901F9018951F920F920FB60F921124D4
:100440008F939F93EF93FF9390917F0180917E0113
:10045000981769F0E0917E01EF5FEF77E0937E01FE
:10046000F0E0E058FE4F80818093C60005C0E1ECCB
:10047000F0E080818F7D8083FF91EF919F918F913C
:100480000F900FBE0F901F901895909101028091D0
:1004900000029817D1F3E0910002EF5FEF77E0934D
:1004A0000002F0E0EE5FFD4F8081089520917F0112
:1004B0002F5F2F7790917E012917E1F3E22FF0E073
:1004C000E058FE4F808320937F01E1ECF0E08081D3
:1004D000806280830895CF93DF93EC018881882325
:1004E00031F021960E94560289918111FBCFDF9154
:1004F000CF910895CF93DF9310926501803279F008
:10050000D82FC0E00E94450291E09C0FEC2FF0E054
:10051000EB59FE4F8083C92FD813F4CF01C090E070
:10052000E92FF0E0EB59FE4F108285E691E0DF9174
:10053000CF91089597FB072E16F4009407D077FD0E
:1005400009D00E94AE0207FC05D03EF4909581953B
:100550009F4F0895709561957F4F0895AA1BBB1B0F
:1005600051E107C0AA1FBB1FA617B70710F0A61BB3
:10057000B70B881F991F5A95A9F780959095BC01D4
:10058000CD010895CF93DF938230910510F482E07E
:1005900090E0E0918802F091890220E030E0C0E034
:1005A000D0E0309711F14081518148175907C0F0D0
:1005B0004817590761F482819381209719F09B8332
:1005C0008A832BC0909389028093880226C02115CC
:1005D000310519F04217530718F49A01BE01DF01E3
:1005E000EF010280F381E02DDCCF2115310509F107
:1005F000281B390B2430310590F412968D919C9173
:1006000013976115710521F0FB019383828304C068
:100610009093890280938802FD01329644C0FD01C7
:10062000E20FF31F81939193225031092D933C9354
:100630003AC02091860230918702232B41F4209109
:1006400002013091030130938702209386022091AA
:100650000001309101012115310541F42DB73EB75C
:100660004091040150910501241B350BE091860255
:10067000F0918702E217F307A0F42E1B3F0B281717
:10068000390778F0AC014E5F5F4F2417350748F00B
:100690004E0F5F1F50938702409386028193919380
:1006A00002C0E0E0F0E0CF01DF91CF9108950F9319
:1006B0001F93CF93DF93009709F48CC0FC0132970E
:1006C000138212820091880210918902011511058E
:1006D00081F420813181820F931F20918602309115
:1006E00087022817390779F5F0938702E09386028D
:1006F00071C0D80140E050E0AE17BF0750F4129629
:100700002D913C911397AD012115310509F1D901C6
:10071000F3CF9D01DA013383228360817181860FDB
:10072000971F8217930769F4EC0128813981260FFE
:10073000371F2E5F3F4F318320838A819B819383B4
:100740008283452B29F4F0938902E093880242C00A
:100750001396FC93EE931297ED01499159919E01E6
:10076000240F351FE217F30771F480819181840F04
:10077000951F029611969C938E9382819381139676
:100780009C938E931297E0E0F0E0D80112968D9141
:100790009C911397009719F0F8018C01F6CF8D9179
:1007A0009C9198012E5F3F4F820F931F20918602EC
:1007B000309187022817390769F4309729F410928D
:1007C00089021092880202C013821282109387025B
:1007D00000938602DF91CF911F910F91089540E61B
:1007E00051E00E9406040895FB01DC010D900020F9
:1007F000E9F7119701900D920020E1F70895FB01B0
:10080000DC0101900D920020E1F70895FA01A19119
:10081000B081009719F41097E1F0CD01DC01CD0112
:100820000D90002011F4C00113C0FB01219122237F
:1008300019F02015D9F7F3CFFB012191201519F4F8
:100840001E92119606C02223C1F70D900020A1F739
:10085000D001FA01A193B0830895AEE0B0E0E3E3E4
:10086000F4E00C94DC060D891E8986E08C831A83E3
:1008700009838FEF9FE79E838D83AE01475E5F4FB5
:100880006F89788DCE0101960E9450042F813885A2
:10089000F801E20FF31F10822E96E4E00C94F806A4
:1008A000ACE0B0E0E6E5F4E00C94CE067C016B0130
:1008B0008A01FC0117821682838181FFBDC1CE01AE
:1008C00001964C01F7019381F60193FD859193FF09
:1008D00081916F01882309F4ABC1853239F493FD0E
:1008E000859193FF81916F01853229F4B70190E0E2
:1008F0000E943806E7CF512C312C20E02032A0F4A2
:100900008B3269F030F4803259F0833269F420611F
:100910002CC08D3239F0803339F4216026C022603A
:10092000246023C0286021C027FD27C030ED380F88
:100930003A3078F426FF06C0FAE05F9E300D1124AD
:10094000532E13C08AE0389E300D1124332E2062BE
:100950000CC08E3221F426FD6BC1206406C08C369B
:1009600011F4206802C0883641F4F60193FD8591A8
:1009700093FF81916F018111C1CF982F9F7D955475
:10098000933028F40C5F1F4FFFE3F9830DC08336CB
:1009900031F0833771F0833509F05BC022C0F80174
:1009A000808189830E5F1F4F44244394512C54014E
:1009B00015C03801F2E06F0E711CF801A080B18003
:1009C00026FF03C0652D70E002C06FEF7FEFC50109
:1009D0002C870E942D062C0183012C852F77222E37
:1009E00017C03801F2E06F0E711CF801A080B180D1
:1009F00026FF03C0652D70E002C06FEF7FEFC501D9
:100A00002C870E9422062C012C852068222E83012F
:100A100023FC1BC0832D90E048165906B0F4B701A3
:100A200080E290E00E9438063A94F4CFF50127FC6A
:100A3000859127FE81915F01B70190E00E94380601
:100A400031103A94F1E04F1A51084114510471F7F2
:100A5000E5C0843611F0893639F5F80127FF07C063
:100A600060817181828193810C5F1F4F08C060811A
:100A70007181072E000C880B990B0E5F1F4F2F768C
:100A8000722E97FF09C090958095709561957F4F64
:100A90008F4F9F4F2068722E2AE030E0A4010E9401
:100AA0007006A82EA81844C0853729F42F7EB22ED0
:100AB0002AE030E025C0F22FF97FBF2E8F36C1F03B
:100AC00018F4883579F0B4C0803719F0883721F0F0
:100AD000AFC02F2F2061B22EB4FE0DC08B2D8460CD
:100AE000B82E09C024FF0AC09F2F9660B92E06C0F9
:100AF00028E030E005C020E130E002C020E132E033
:100B0000F801B7FE07C060817181828193810C5F1B
:100B10001F4F06C06081718180E090E00E5F1F4F23
:100B2000A4010E947006A82EA818FB2DFF777F2E27
:100B300076FE0BC0372D3E7FA51450F474FE0AC01C
:100B400072FC08C0372D3E7E05C0BA2C372D03C07D
:100B5000BA2C01C0B52C34FF0DC0FE01EA0DF11D09
:100B60008081803311F4397E09C032FF06C0B3940E
:100B7000B39404C0832F867809F0B39433FD13C077
:100B800030FF06C05A2CB31418F4530C5B18B32C66
:100B9000B31468F4B70180E290E03C870E94380605
:100BA000B3943C85F5CFB31410F43B1801C0312C3D
:100BB00034FF12C0B70180E390E03C870E94380602
:100BC0003C8532FF17C031FD03C088E790E002C0CA
:100BD00088E590E0B7010CC0832F867859F031FF8B
:100BE00002C08BE201C080E237FD8DE2B70190E0E8
:100BF0000E943806A51438F4B70180E390E00E9403
:100C000038065A94F7CFAA94F401EA0DF11D8081B9
:100C1000B70190E00E943806A110F5CF332009F407
:100C200051CEB70180E290E00E9438063A94F6CFA8
:100C3000F7018681978102C08FEF9FEF2C96E2E14A
:100C40000C94EA06FC010590615070400110D8F741
:100C5000809590958E0F9F1F0895FC016150704004
:100C600001900110D8F7809590958E0F9F1F0895E1
:100C70000F931F93CF93DF93FB01238121FD03C0CB
:100C80008FEF9FEF28C022FF16C046815781248135
:100C900035814217530744F4A081B1819D012F5F34
:100CA0003F4F318320838C93268137812F5F3F4FC5
:100CB0003783268310C0EB01092F182F0084F1859C
:100CC000E02D0995892BE1F68E819F8101969F8306
:100CD0008E83812F902FDF91CF911F910F910895D7
:100CE000FA01AA27283051F1203181F1E8946F935D
:100CF0006E7F6E5F7F4F8F4F9F4FAF4FB1E03ED003
:100D0000B4E03CD0670F781F891F9A1FA11D680FA0
:100D1000791F8A1F911DA11D6A0F711D811D911DD3
:100D2000A11D20D009F468943F912AE0269F112448
:100D30003019305D3193DEF6CF010895462F4770AC
:100D4000405D4193B3E00FD0C9F7F6CF462F4F7007
:100D5000405D4A3318F0495D31FD4052419302D065
:100D6000A9F7EACFB4E0A69597958795779567950B
:100D7000BA95C9F700976105710508959B01AC010B
:100D80000A2E06945795479537952795BA95C9F732
:100D9000620F731F841F951FA01D08952F923F920D
:100DA0004F925F926F927F928F929F92AF92BF927B
:100DB000CF92DF92EF92FF920F931F93CF93DF9327
:100DC000CDB7DEB7CA1BDB0B0FB6F894DEBF0FBE84
:100DD000CDBF09942A88398848885F846E847D84D1
:100DE0008C849B84AA84B984C884DF80EE80FD80D3
:100DF0000C811B81AA81B981CE0FD11D0FB6F89449
:0E0E0000DEBF0FBECDBFED010895F894FFCF09
:100E0E0000008A0220003100494155540030007024
:100E1E00617373776F7264004950415300494E53AA
:100E2E004700256400495353470052454144592118
:100E3E00003A000A004F415554004F504153004FA5
:100E4E004E5347004F53534700434F4D4D414E4471
:100E5E005F52454A45435445440049494E560000A9
:00000001FF
